{
  "transactions": [
    {
      "hash": "0x25a1e230a75b8f62baa9e094dda2d6d9da2e7c326fea136e7c49c579505e7002",
      "transactionType": "CALL",
      "contractName": null,
      "contractAddress": "0x547b46642a9a067e476aeee72241a9d0a772f947",
      "function": "execTransaction(address,uint256,bytes,uint8,uint256,uint256,uint256,address,address,bytes)",
      "arguments": [
        "0xfdaFc9d1902f4e0b84f65F49f244b32b31013b74",
        "0",
        "0x6bfae1ca000000000000000000000000000000000000000000000000000000000000004000000000000000000000000000000000000000000000000000000000000000010000000000000000000000008a1c17fa964061443c84e5f98a69d7c1a643ffadb791da93b15f33cb38c1bcf34965674a357dd5dfe7b87d1cf1605a9e7cb5349f000000000000000000000000000000000000000000000000000000000000006000000000000000000000000000000000000000000000000000000000000001000000000000000000000000002791bca1f2de4661ed88a30c99a7a9449aa84174000000000000000000000000c2132d05d31c914a87c6611c10748aeb04b58e8f0000000000000000000000000000000000000000000000000000000000000000000000000000000000000000000000000000000000000000016345785d8a00000000000000000000000000000000000000000000000000000dbd2fc137a300000000000000000000000000000000000000000000000000000000000068655af900000000000000000000000000000000000000000000000000000000688ce7f91000000000000000000000000000000000000000000000000000000000000000",
        "0",
        "0",
        "0",
        "0",
        "0x0000000000000000000000000000000000000000",
        "0x0000000000000000000000000000000000000000",
        "0x000000000000000000000000f858c5ec7d413966b5940f01cbf57b8eaf4071c7000000000000000000000000000000000000000000000000000000000000000001"
      ],
      "transaction": {
        "from": "0xf858c5ec7d413966b5940f01cbf57b8eaf4071c7",
        "to": "0x547b46642a9a067e476aeee72241a9d0a772f947",
        "gas": "0x27709",
        "value": "0x0",
        "input": "0x6a761202000000000000000000000000fdafc9d1902f4e0b84f65f49f244b32b31013b7400000000000000000000000000000000000000000000000000000000000000000000000000000000000000000000000000000000000000000000000000000140000000000000000000000000000000000000000000000000000000000000000000000000000000000000000000000000000000000000000000000000000000000000000000000000000000000000000000000000000000000000000000000000000000000000000000000000000000000000000000000000000000000000000000000000000000000000000000000000000000000000000000000000000000000000000000000000000000000000000000000000000000000000000000000000000000000000000000000000000000000000000000000000000000000000034000000000000000000000000000000000000000000000000000000000000001c46bfae1ca000000000000000000000000000000000000000000000000000000000000004000000000000000000000000000000000000000000000000000000000000000010000000000000000000000008a1c17fa964061443c84e5f98a69d7c1a643ffadb791da93b15f33cb38c1bcf34965674a357dd5dfe7b87d1cf1605a9e7cb5349f000000000000000000000000000000000000000000000000000000000000006000000000000000000000000000000000000000000000000000000000000001000000000000000000000000002791bca1f2de4661ed88a30c99a7a9449aa84174000000000000000000000000c2132d05d31c914a87c6611c10748aeb04b58e8f0000000000000000000000000000000000000000000000000000000000000000000000000000000000000000000000000000000000000000016345785d8a00000000000000000000000000000000000000000000000000000dbd2fc137a300000000000000000000000000000000000000000000000000000000000068655af900000000000000000000000000000000000000000000000000000000688ce7f91000000000000000000000000000000000000000000000000000000000000000000000000000000000000000000000000000000000000000000000000000000000000000000000000000000000000000000000000000000000000041000000000000000000000000f858c5ec7d413966b5940f01cbf57b8eaf4071c700000000000000000000000000000000000000000000000000000000000000000100000000000000000000000000000000000000000000000000000000000000",
        "nonce": "0x4",
        "chainId": "0x89"
      },
      "additionalContracts": [],
      "isFixedGasLimit": false
    }
  ],
  "receipts": [
    {
      "status": "0x1",
      "cumulativeGasUsed": "0x1420e7a",
      "logs": [
        {
          "address": "0x547b46642a9a067e476aeee72241a9d0a772f947",
          "topics": [
            "0x66753cd2356569ee081232e3be8909b950e0a76c1f8460c3a5e3c2be32b11bed"
          ],
          "data": "0x000000000000000000000000fdafc9d1902f4e0b84f65f49f244b32b31013b7400000000000000000000000000000000000000000000000000000000000000000000000000000000000000000000000000000000000000000000000000000160000000000000000000000000000000000000000000000000000000000000000000000000000000000000000000000000000000000000000000000000000000000000000000000000000000000000000000000000000000000000000000000000000000000000000000000000000000000000000000000000000000000000000000000000000000000000000000000000000000000000000000000000000000000000000000000000000000000000000000000000000000000000000000000000000000000000000000000000000000000000000000000000000000000000036000000000000000000000000000000000000000000000000000000000000003e000000000000000000000000000000000000000000000000000000000000001c46bfae1ca000000000000000000000000000000000000000000000000000000000000004000000000000000000000000000000000000000000000000000000000000000010000000000000000000000008a1c17fa964061443c84e5f98a69d7c1a643ffadb791da93b15f33cb38c1bcf34965674a357dd5dfe7b87d1cf1605a9e7cb5349f000000000000000000000000000000000000000000000000000000000000006000000000000000000000000000000000000000000000000000000000000001000000000000000000000000002791bca1f2de4661ed88a30c99a7a9449aa84174000000000000000000000000c2132d05d31c914a87c6611c10748aeb04b58e8f0000000000000000000000000000000000000000000000000000000000000000000000000000000000000000000000000000000000000000016345785d8a00000000000000000000000000000000000000000000000000000dbd2fc137a300000000000000000000000000000000000000000000000000000000000068655af900000000000000000000000000000000000000000000000000000000688ce7f91000000000000000000000000000000000000000000000000000000000000000000000000000000000000000000000000000000000000000000000000000000000000000000000000000000000000000000000000000000000000041000000000000000000000000f858c5ec7d413966b5940f01cbf57b8eaf4071c70000000000000000000000000000000000000000000000000000000000000000010000000000000000000000000000000000000000000000000000000000000000000000000000000000000000000000000000000000000000000000000000600000000000000000000000000000000000000000000000000000000000000000000000000000000000000000f858c5ec7d413966b5940f01cbf57b8eaf4071c70000000000000000000000000000000000000000000000000000000000000001",
          "blockHash": "0xee992cbbd2733a2890a622f5af84eb53c2148af926796d6dc375102fc4d05ee0",
          "blockNumber": "0x46168b0",
          "transactionHash": "0x25a1e230a75b8f62baa9e094dda2d6d9da2e7c326fea136e7c49c579505e7002",
          "transactionIndex": "0x75",
          "logIndex": "0x298",
          "removed": false
        },
        {
          "address": "0xfdafc9d1902f4e0b84f65f49f244b32b31013b74",
          "topics": [
            "0x2cceac5555b0ca45a3744ced542f54b56ad2eb45e521962372eef212a2cbf361",
            "0x000000000000000000000000547b46642a9a067e476aeee72241a9d0a772f947"
          ],
          "data": "0x00000000000000000000000000000000000000000000000000000000000000200000000000000000000000008a1c17fa964061443c84e5f98a69d7c1a643ffadb791da93b15f33cb38c1bcf34965674a357dd5dfe7b87d1cf1605a9e7cb5349f000000000000000000000000000000000000000000000000000000000000006000000000000000000000000000000000000000000000000000000000000001000000000000000000000000002791bca1f2de4661ed88a30c99a7a9449aa84174000000000000000000000000c2132d05d31c914a87c6611c10748aeb04b58e8f0000000000000000000000000000000000000000000000000000000000000000000000000000000000000000000000000000000000000000016345785d8a00000000000000000000000000000000000000000000000000000dbd2fc137a300000000000000000000000000000000000000000000000000000000000068655af900000000000000000000000000000000000000000000000000000000688ce7f91000000000000000000000000000000000000000000000000000000000000000",
          "blockHash": "0xee992cbbd2733a2890a622f5af84eb53c2148af926796d6dc375102fc4d05ee0",
          "blockNumber": "0x46168b0",
          "transactionHash": "0x25a1e230a75b8f62baa9e094dda2d6d9da2e7c326fea136e7c49c579505e7002",
          "transactionIndex": "0x75",
          "logIndex": "0x299",
          "removed": false
        },
        {
          "address": "0x547b46642a9a067e476aeee72241a9d0a772f947",
          "topics": [
            "0x442e715f626346e8c54381002da614f62bee8d27386535b2521ec8540898556e",
            "0x5de0aa926733e78f0eb679d7f517a2d4fc552c94c4ae4213ca084e1aba7a0b7e"
          ],
          "data": "0x0000000000000000000000000000000000000000000000000000000000000000",
          "blockHash": "0xee992cbbd2733a2890a622f5af84eb53c2148af926796d6dc375102fc4d05ee0",
          "blockNumber": "0x46168b0",
          "transactionHash": "0x25a1e230a75b8f62baa9e094dda2d6d9da2e7c326fea136e7c49c579505e7002",
          "transactionIndex": "0x75",
          "logIndex": "0x29a",
          "removed": false
        },
        {
          "address": "0x0000000000000000000000000000000000001010",
          "topics": [
            "0x4dfe1bbbcf077ddc3e01291eea2d5c70c2b422b415d95645b9adcfd678cb1d63",
            "0x0000000000000000000000000000000000000000000000000000000000001010",
            "0x000000000000000000000000f858c5ec7d413966b5940f01cbf57b8eaf4071c7",
            "0x000000000000000000000000a8b52f02108aa5f4b675bdcc973760022d7c6020"
          ],
          "data": "0x000000000000000000000000000000000000000000000000000a34023de36c00000000000000000000000000000000000000000000000000cf90d38c109ffb51000000000000000000000000000000000000000000000024101677af87863a12000000000000000000000000000000000000000000000000cf869f89d2bc8f510000000000000000000000000000000000000000000000241020abb1c569a612",
          "blockHash": "0xee992cbbd2733a2890a622f5af84eb53c2148af926796d6dc375102fc4d05ee0",
          "blockNumber": "0x46168b0",
          "transactionHash": "0x25a1e230a75b8f62baa9e094dda2d6d9da2e7c326fea136e7c49c579505e7002",
          "transactionIndex": "0x75",
          "logIndex": "0x29b",
          "removed": false
        }
      ],
      "logsBloom": "0x00000000400000000000000000000000000000000000000000000080040000000000000000020000000000000042000000088000000000000000000000000000000000000000000008000000000000800000040001000000000100000000000000000000000000000000000020000000000000000000000080000000000000000000000000000000000000000080200000000000000000040000000000000000200000000400004000000020000404000000000080000000000000000000004000000000000000000001000000020000000000000000000000500000000000000000000000130000000000000000000000000000800000000000000000100000",
      "type": "0x2",
      "transactionHash": "0x25a1e230a75b8f62baa9e094dda2d6d9da2e7c326fea136e7c49c579505e7002",
      "transactionIndex": "0x75",
      "blockHash": "0xee992cbbd2733a2890a622f5af84eb53c2148af926796d6dc375102fc4d05ee0",
      "blockNumber": "0x46168b0",
      "gasUsed": "0x1af7b",
      "effectiveGasPrice": "0x60db884c8",
      "from": "0xf858c5ec7d413966b5940f01cbf57b8eaf4071c7",
      "to": "0x547b46642a9a067e476aeee72241a9d0a772f947",
      "contractAddress": null
    }
  ],
  "libraries": [],
  "pending": [],
  "returns": {},
  "timestamp": 1751472897,
  "chain": 137,
  "commit": "7f667ea"
}